:020000040800F2
:1000000070420020A58D0008291C00082B1C000848
:100010002F1C0008331C0008371C000800000000DB
:100020000000000000000000000000003B1C000871
:100030003D1C0008000000000B41010895A20008CB
:10004000BF8D0008BF8D0008BF8D0008BF8D000860
:10005000BF8D0008BF8D0008BF8D0008BF8D000850
:10006000BF8D0008BF8D0008BF8D0008BF8D000840
:10007000BF8D0008BF8D0008BF8D0008BF8D000830
:10008000BF8D0008BF8D0008BF8D0008BF8D000820
:10009000BF8D0008BF8D0008BF8D0008BF8D000810
:1000A000BF8D0008BF8D0008BF8D0008BF8D000800
:1000B000BF8D0008BF8D0008BF8D0008BF8D0008F0
:1000C000BF8D0008BF8D0008BF8D0008BF8D0008E0
:1000D000BF8D000881A40008BF8D0008BF8D0008F7
:1000E000BF8D0008BF8D0008BF8D0008BF8D0008C0
:1000F000BF8D0008BF8D0008BF8D0008BF8D0008B0
:10010000BF8D0008BF8D0008BF8D0008BF8D00089F
:10011000BF8D0008BF8D0008BF8D0008BF8D00088F
:10012000BF8D0008BF8D0008BF8D0008BF8D00087F
:10013000BF8D0008BF8D0008BF8D0008BF8D00086F
:10014000BF8D0008BF8D0008BF8D0008BF8D00085F
:10015000BF8D0008BF8D0008BF8D0008BF8D00084F
:10016000BF8D0008BF8D0008BF8D0008BF8D00083F
:10017000BF8D0008BF8D0008BF8D0008BF8D00082F
:10018000BF8D0008BF8D000800F002F800F067F88E
:100190000AA090E8000C82448344AAF10107DA45E2
:1001A00001D100F05CF8AFF2090EBAE80F0013F0CD
:1001B000010F18BFFB1A43F001031847AC6601009A
:1001C000CC6601000A444FF0000C10F8013B13F01C
:1001D000070408BF10F8014B1D1108BF10F8015BA0
:1001E000641E05D010F8016B641E01F8016BF9D193
:1001F00013F0080F1EBF10F8014BAD1C0C1B09D1EA
:100200006D1E58BF01F801CBFAD505E014F8016B5B
:1002100001F8016B6D1EF9D59142D6D370470000ED
:100220000023002400250026103A28BF78C1FBD8FF
:10023000520728BF30C148BF0B607047642913F0D4
:10024000C185782913F0FA85732913F0DD86002023
:1002500070471FB514F081FC1FBD10B510BD13F021
:100260000DFF1146FFF7F5FF01F008FC13F02BFF1F
:1002700003B4FFF7F2FF03BC0AF09EF81CB500249C
:10028000F948416800208847F848007828B9F848BC
:10029000007810B9F7480078A8B1F34880894FF684
:1002A000FF7188420FD1F448007860B1F3480068CC
:1002B000C043F349C1F8A8020020EC490870EC499A
:1002C0000870EC490870EF480078002842D0E648F2
:1002D000808928283EDDE448808964283ADAE248AB
:1002E000C08AC82836DDE048C08AFA2832DA4FF6DC
:1002F000FF7002F06EFC0020E2490870E2490870CD
:10030000E2490870E2490870E2490870E249087061
:10031000E2490870E24908700120E2490870FA23B6
:10032000F0221946002006F0C7F94FF4B4733C22BE
:100330000021104606F0C0F94FF4B4737822002172
:10034000104606F0B9F94FF4B473B42200211046F8
:1003500006F0B2F9CB480078002862D0C248808904
:100360008C285EDDC0488089C8285ADABE48C08A19
:10037000C82856DDBC48C08AFA2852DA4FF6FF700A
:1003800002F027FC0020C8490870C8490870BE491F
:100390000870BC490870BD490870BD490870BD4966
:1003A0000870BD490870BD490870BD49087001203A
:1003B000BF4908703C23B4221946184606F07CF960
:1003C0008423B42219463C2006F076F984233C228B
:1003D0001146104606F070F98423B4223C211046E1
:1003E00006F06AF9B3A01021C8231A46CDE900101F
:1003F0005621502006F06DFBB1A01021C8231A46EB
:10040000CDE90010FA21502006F063FBB0A01021C6
:10041000C8231A46CDE900104FF48C71552006F020
:1004200058FB914890F8200000F08000002873D01D
:100430008D4880893C2818DD8B488089B42814DADF
:100440008948C08A3C2810DD8748C08A84280CDA95
:100450008948007848B98948001F0068C043884926
:10046000C1F8A4020120844908707F4880893C2893
:1004700018DD7D488089B42814DA7B48C08A3C287E
:1004800010DD7948C08A84280CDA8948007848B1A0
:100490007A48001F0068C0437949C1F8A4020120CE
:1004A000824908707048808900284FDD6E48808935
:1004B0003C284BDA6C48C08AFA2847DD002443E028
:1004C00004EB4400854901EB8000807928B304EBFC
:1004D000440001EB80000079F8B904EB440001EB23
:1004E00080004079C8B961480078B0B9002004EBB9
:1004F00044017A4A02EB81018871012004EB440136
:1005000002EB8101487163480078401C6149087022
:1005100001205649087015E0EEE0714800884FF65A
:10052000FF7188420ED16F48008888420AD14F4837
:10053000007838B9012053490870002059490870E3
:100540005A490870601CC4B2062CB9DB4648808941
:100550003C284EDD4448808978284ADA4248C08ADF
:10056000FA2846DD002442E004EB44005E4901EB3A
:100570008000807920B304EB440001EB8000007917
:10058000F0B904EB440001EB80004079C0B9384871
:100590000078A8B9002004EB4401534A02EB810122
:1005A0008871012004EB440102EB81014871384855
:1005B0000078401C3649087001202D49087014E06D
:1005C0004A4800884FF6FF7188420ED1484800889B
:1005D00088420AD12648007838B901202949087094
:1005E00000203049087031490870601CC4B2062CE4
:1005F000BADB1D48808978287EDD1B488089B428B5
:100600007ADA1948C08AFA2876DD00248CE004EBF7
:100610004400384901EB8000807920B304EB4400AA
:1006200001EB80000079F0B904EB440001EB80009D
:100630004079C0B90F480078A8B9002004EB440104
:100640002C4A02EB81018871012004EB440102EB8A
:10065000810148710D480078401C0C490870012048
:10066000044908705EE048E0840000204400002057
:10067000450000204600002047000020A88242429A
:10068000008042424900002052000020510000201A
:10069000500000204F0000204E0000204D000020A0
:1006A0004C0000204A000020530000204800002099
:1006B0004B00002053746172742047616D65000027
:1006C000416C6C204D4144452042592020000000DF
:1006D0004C696E47616F4A756E000000981A0020E1
:1006E000380000203A000020E01A00203C000020E2
:1006F0003E000020281B002019E0FE4800884FF62D
:10070000FF7188420ED1FC48008888420AD1FB481C
:10071000007838B90120FA4908700020F9490870BA
:10072000F9490870601CC4B2062CFFF670AF1CBDFE
:100730000EB5002400BF0020F449088000BF00BFB0
:1007400000BF0AF081F8044600BF00BFF0480078FF
:10075000401CEF49087000BF00BF20460AF078F83F
:1007600000BF00BF00BF00BF00BF00BF0AF06CF8B1
:10077000044600BF00BFE6480078401EE449087008
:1007800008460078A0B9E3480088002809DD00BFCA
:1007900000BF20460AF05CF800BF00BF0CF000FB71
:1007A0000DE000BF00BF20460AF052F800BF06E08F
:1007B00000BF00BF20460AF04BF800BF00BF00BFDB
:1007C00045E1D548007800287DD1CD480078002843
:1007D00079D00120D04908704FF6FF704FF4917323
:1007E000D222282100901E2005F0D9FE2823D222F3
:1007F00019461E2005F060FF4FF49173D22219466E
:100800001E2005F059FF4FF491731E222821104637
:1008100005F052FF4FF49173D2222821104605F0C3
:100820004BFFBEA01021C8231A46CDE900103C2181
:10083000502006F04EF980201821CDE90010BA486A
:100840000078BA4909780844B9490978421802235E
:100850007821642006F0CFF8FA236422C8212820EA
:1008600005F082FFB3A01021C8231A46CDE900107D
:10087000DC21322006F02DF9FA23C82211468C2003
:1008800005F072FFADA01021C8231A46CDE9001073
:10089000DC21962006F01DF90020AA4981F83C00D1
:1008A00081F8300081F82400087608730870A649A2
:1008B00081F83C0081F8300081F824000876087344
:1008C0000870A24900E024E081F83C0081F8300083
:1008D00081F824000876087308709D4908809D49B6
:1008E00008809D49088000219648C1874186C184BF
:1008F0004183C18141809448C1874186C18441833D
:10090000C18141809148C1874186C1844183C181B1
:1009100041807C48007890B100207949087002A994
:100920008E4811F013F802A98D4811F00FF802A9B2
:100930008C4811F00BF802A98B4811F007F88B488E
:100940000078002864D18A480078002860D06E487A
:10095000007800285CD00120844908704FF6FF70B1
:1009600002F037F9FA23F0221946002005F0A4FE20
:100970004FF4B4733C220021104605F09DFE4FF465
:10098000B47378220021104605F096FE4FF4B4733C
:10099000B4220021104605F08FFE0020694981F83D
:1009A0003C0081F8300081F8240008760873087054
:1009B000654981F83C0081F8300081F82400087610
:1009C00008730870614981F83C0081F8300081F8B3
:1009D00024000876087308705D4908805D49088026
:1009E0005D49088000215748C1874186C184418301
:1009F000C18141805448C1874186C1844183C181FE
:100A000041805248C1874186C1844183C181418070
:100A10003D48007890B100203949087002A94F483C
:100A200010F094FF02A94E4810F090FF02A94D4823
:100A300010F08CFF02A94C4810F088FF02A800219A
:100A400032230A46CDE90010084612F0A4F8B8E6B1
:100A50000EB5002400BF00202C49088000BF00BF55
:100A600000BF09F0F1FE044600BF00BF284800782F
:100A7000401C2749087000BF00BF204609F0E8FE6F
:100A800000BF00BF00BF00BF00BF00BF09F0DCFE19
:100A9000044600BF00BF1E480078401E1C49087075
:100AA00008460078A0B91B480088002809DD00BF6F
:100AB00000BF204609F0CCFE00BF00BF0CF070F96B
:100AC0000DE000BF00BF204609F0C2FE00BF06E0F7
:100AD00000BF00BF204609F0BBFE00BF00BF00BF43
:100AE00002A91E4811F0D5FC3C23B4221946184631
:100AF00040E00000400000204200002046000020AE
:100B0000490000204A000020480000207C0000200E
:100B1000500100201401002052000020596F75720E
:100B20002053636F72657300500000204F00002057
:100B30005100002052656E65770000004261636BD2
:100B400000000000981A0020E01A0020281B002056
:100B50005C0000205A00002058000020000A0020FD
:100B60003C070020C40C0020880F00205300002008
:100B70004B00002005F0A0FD8423B42219463C2040
:100B800005F09AFD84233C221146104605F094FDA1
:100B90008423B4223C21104605F08EFDAFF2EC40D8
:100BA0001021C8231A46CDE900105621502005F027
:100BB00090FFAFF2F4401021C8231A46CDE900108F
:100BC000FA21502005F085FFAFF2FC401021C82328
:100BD0001A46CDE900104FF48C71552005F079FFCD
:100BE0000EE0FB48007858B14FF6FF7001F0F1FFBE
:100BF00002A9F84810F0AAFE02A9F74811F049FC32
:100C0000EFE70EB5002400BF0020F449088000BFC4
:100C100000BF00BF09F018FE044600BF00BFF04847
:100C20000078401CEE49087000BF00BF204609F064
:100C30000FFE00BF00BF00BF00BF00BF00BF09F034
:100C400003FE044600BF00BFE5480078401EE449AB
:100C5000087008460078A0B9E2480088002809DD3D
:100C600000BF00BF204609F0F3FD00BF00BF0CF03D
:100C700097F80DE000BF00BF204609F0E9FD00BF76
:100C800006E000BF00BF204609F0E2FD00BF00BF44
:100C900000BF13E0802010210323CDE90010D248CB
:100CA00002786521CE2005F0A6FE02A800210523CA
:100CB0000A46CDE90010084611F06DFFEAE786B05C
:100CC0000024002004900590002500BFC34908803F
:100CD00000BF00BF00BF09F0B7FD054600BF00BF61
:100CE000BF480078401CBE49087000BF00BF2846BE
:100CF00009F0AEFD00BF00BF00BF00BF00BF00BFD6
:100D000009F0A2FD054600BF00BFB5480078401EAF
:100D1000B349087008460078A0B9B2480088002896
:100D200009DD00BF00BF284609F092FD00BF00BFEB
:100D30000CF036F80DE000BF00BF284609F088FD32
:100D400000BF06E000BF00BF284609F081FD00BFDC
:100D500000BF00BFFEE00024F0E0A4480188601C52
:100D600081422BD1012004EB4401A14A02F8210069
:100D7000032C0DDC0021601C00EB400002EB800026
:100D80000171A01C00EB400002EB8000017115E036
:100D9000042C0BD10021601C00EB4000944A02EBB4
:100DA0008000017100201146087107E0052C05D173
:100DB00000208F49087100218D48017404EB440024
:100DC0008B4911F8200000287DD004EB440001EB92
:100DD00080004088B0F5C37F75DC04EB440001EB74
:100DE00080004088401C04EB4401814A02EB8101F1
:100DF000488004EB440002EB8000438804EB44008D
:100E000002EB80004188B422792005F0ADFC04EBB0
:100E10004400774901EB80004088462815DD4FF6F5
:100E2000FF70009004EB44000A4602EB800040880B
:100E3000473883B204EB440002EB80004088473817
:100E400081B2B322792005F0AAFB04EB4400684983
:100E500001EB80004088FA2817DBFA23F0221946BC
:100E6000002005F029FC012004EB4401604A02EB5C
:100E70008101887104A8005D38B95E480078401C83
:100E80005C490870012004A9085504EB4400584946
:100E900001EB80004088B0F5C37F2EDB012004EB1E
:100EA0004401534A02EB81010871002004EB440124
:100EB00002EB8101887104EB440102EB810148716E
:100EC00004EB440100E037E002F8210004EB4401A8
:100ED00002EB810148804549088004A9085545482E
:100EE000007845490978884207D0012043490870B5
:100EF0000020434908704349087004EB44003C4912
:100F000001EB80004079B8B14FF4C37004EB4401A9
:100F1000374A02EB810148804FF6FF704FF4C373EC
:100F2000B322B4210090792005F039FBFA23F02296
:100F30001946002005F0C0FB601CC4B2052C7FF7E9
:100F40000CAF03A8002105230A46CDE9001008468E
:100F500011F021FEFFE686B00024002004900590E9
:100F6000002500BF1D49088000BF00BF00BF09F079
:100F70006BFC054600BF00BF19480078401C1849AB
:100F8000087000BF00BF284609F062FC00BF00BF28
:100F900000BF00BF00BF00BF09F056FC054600BF00
:100FA00000BF0F480078401E0D49087008460078C1
:100FB00068B90C480088002826DD00BF00BF28461D
:100FC00009F046FC00BF00BF0BF0EAFE2AE022E079
:100FD00047000020000A0020101500207C0000209F
:100FE0005001002014010020640000205C0000205B
:100FF000281B00204E000020510000204900002046
:101000004A0000204800002000BF00BF284609F029
:101010001FFC00BF06E000BF00BF284609F018FC17
:1010200000BF00BF00BFFEE00024F0E0FE480188E2
:10103000601C81422BD1012004EB4401FB4A02F8E1
:101040002100042C0DDC0021601C00EB400002EBB1
:1010500080000171A01C00EB400002EB80000171D8
:1010600015E0042C0BD10021601C00EB4000EF4A7E
:1010700002EB8000017100201146087107E0052C89
:1010800005D10020E94908710021E848017404EB0A
:101090004400E64911F8200000287DD004EB44000C
:1010A00001EB80004088B0F5C37F75DC04EB4400A1
:1010B00001EB80004088401C04EB4401DB4A02EB5A
:1010C0008101488004EB440002EB8000438804EB7C
:1010D000440002EB8000418878223D2005F044FB6B
:1010E00004EB4400D14901EB80004088462815DD1F
:1010F0004FF6FF70009004EB44000A4602EB8000BC
:101100004088473883B204EB440002EB80004088FB
:10111000473881B277223D2005F041FA04EB4400C4
:10112000C24901EB80004088FA2817DBFA23F0223D
:101130001946002005F0C0FA012004EB4401BB4A27
:1011400002EB8101887104A8005D38B9B8480078C5
:10115000401CB7490870012004A9085504EB44005D
:10116000B24901EB80004088B0F5C37F2EDB01203F
:1011700004EB4401AD4A02EB81010871002004EB4D
:10118000440102EB8101887104EB440102EB81010F
:10119000487104EB440100E037E002F8210004EB61
:1011A000440102EB810148809F49088004A9085549
:1011B0009F4800789F490978884207D001209E49BE
:1011C000087000209D4908709D49087004EB440098
:1011D000964901EB80004079B8B14FF4C37004EB3D
:1011E0004401924A02EB810148804FF6FF704FF4B0
:1011F000C3737722B42100903D2005F0D0F9FA2383
:10120000F0221946002005F057FA601CC4B2052CE4
:101210007FF70CAF03A8002105230A46CDE9001093
:10122000084611F0B8FCFFE60EB5002400BF002010
:101230008449088000BF00BF00BF09F005FB0446D9
:1012400000BF00BF80480078401C7F49087000BF85
:1012500000BF204609F0FCFA00BF00BF00BF00BF7E
:1012600000BF00BF09F0F0FA044600BF00BF764897
:101270000078401E7449087008460078A0B9734889
:101280000088002809DD00BF00BF204609F0E0FA11
:1012900000BF00BF0BF084FD0DE000BF00BF204683
:1012A00009F0D6FA00BF06E000BF00BF204609F0F3
:1012B000CFFA00BF00BF00BFFA23F022194600207A
:1012C00005F0FAF94FF4B4733C220021104605F002
:1012D000F3F94FF4B47378220021104605F0ECF9CD
:1012E0004FF4B473B4220021104605F0E5F902A9C9
:1012F000574811F0CEF802A9564811F0CAF802A9D1
:10130000554811F0C6F802A9544811F0C2F85FE040
:101310000321012005F039FC514908700846007886
:10132000012816D14448007898B94E480088401CDE
:101330004C49088002A9464810F008FB494800883B
:10134000062802DD012047490880464800884649B2
:10135000088043480078022816D13748007898B9A9
:1013600042480088401C4149088002A9394810F0D1
:10137000EDFA3E480088062802DD01203B4908803E
:101380003A4800882849088035480078032816D153
:101390002948007898B936480088401C34490880AC
:1013A00002A92D4810F0D2FA31480088062802DD43
:1013B00001202F4908802E4800882E49088002A865
:1013C00000210B460122CDE90010084611F0E3FB95
:1013D0009EE786B00024002004900590002500BF01
:1013E0001849088000BF00BF00BF09F02DFA05466C
:1013F00000BF00BF14480078401C1349087000BFAC
:1014000000BF284609F024FA00BF00BF00BF00BF9C
:1014100000BF00BF09F018FA054600BF00BF0A4828
:101420000078401E084927E05A000020E01A0020FA
:101430004D00002050000020490000204A000020FC
:10144000480000207C0000205001002014010020F2
:101450003C070020C40C0020880F0020D417002077
:10146000640000205E000020580000206000002082
:10147000620000205C000020087008460078A0B9D7
:10148000FE480088002809DD00BF00BF284609F09B
:10149000DFF900BF00BF0BF083FC0DE000BF00BF11
:1014A000284609F0D5F900BF06E000BF00BF284676
:1014B00009F0CEF900BF00BF00BFFEE00024F0E05D
:1014C000EF480188601C81422BD1012004EB4401CC
:1014D000EC4A02F82100032C0DDC0021601C00EB1B
:1014E000400002EB80000171A01C00EB400002EB09
:1014F0008000017115E0042C0BD10021601C00EB71
:101500004000E04A02EB80000171002011460871A2
:1015100007E0052C05D10020DA4908710021D948DF
:10152000017404EB4400D74911F8200000287DD055
:1015300004EB440001EB80004088B0F5C37F75DC0C
:1015400004EB440001EB80004088401C04EB4401A4
:10155000CC4A02EB8101488004EB440002EB80009E
:10156000438804EB440002EB800041883C220020C9
:1015700005F0FAF804EB4400C24901EB8000408812
:10158000462815DD4FF6FF70009004EB44000A4634
:1015900002EB80004088473883B204EB440002EB42
:1015A00080004088473881B23B22002004F0F7FFDA
:1015B00004EB4400B34901EB80004088FA2817DBB4
:1015C000FA23F0221946002005F076F8012004EBFA
:1015D0004401AC4A02EB8101887104A8005D38B96E
:1015E000A9480078401CA8490870012004A90855A2
:1015F00004EB4400A34901EB80004088B0F5C37FB1
:101600002EDB012004EB44019E4A02EB81010871AC
:10161000002004EB440102EB8101887104EB4401DA
:1016200002EB8101487104EB440100E037E002F86D
:10163000210004EB440102EB8101488090490880BD
:1016400004A908559048007890490978884207D045
:1016500001208F49087000208E4908708E4908705B
:1016600004EB4400874901EB80004079B8B14FF4A6
:10167000C37004EB4401834A02EB810148804FF6BA
:10168000FF704FF4C3733B22B4210090002004F09C
:1016900086FFFA23F0221946002005F00DF8601CA1
:1016A000C4B2052C7FF70CAF03A8002105230A461E
:1016B000CDE90010084611F06EFAFFE60EB50024E1
:1016C00000BF00207549088000BF00BF00BF09F0BF
:1016D000BBF8044600BF00BF71480078401C704949
:1016E000087000BF00BF204609F0B2F800BF00BF7D
:1016F00000BF00BF00BF00BF09F0A6F8044600BF4E
:1017000000BF67480078401E6549087008460078A9
:10171000A0B95A480088002809DD00BF00BF204654
:1017200009F096F800BF00BF0BF03AFB0DE000BFD8
:1017300000BF204609F08CF800BF06E000BF00BFE4
:10174000204609F085F800BF00BF00BF48E0FB213C
:101750001E2000F0BDFC5349088040F23F111E20BE
:1017600000F0B6FC50490880FB215A2000F0B0FC84
:101770004E49088040F23F115A2000F0A9FC4C4924
:101780000880FB21962000F0A3FC4A49088040F223
:101790003F11962000F09CFC474908803C480078A7
:1017A00098B102A9454810F0D1F802A9444810F0B8
:1017B00070FE02A9434810F06CFE02A9424810F0E6
:1017C00068FE02A9414810F064FEFEF757FD02A82A
:1017D000002132230A46CDE90010084611F0DBF95A
:1017E000B5E730B58BB00446002500BF08F0F4FE25
:1017F0000AA80EF05EFE0AAA012108460AF0E7FEDA
:1018000000BF00BF00BF09F01FF8054600BF00BFC2
:1018100023480078401C2249087000BF00BF2846BA
:1018200009F016F800BF00BF00BF0AA8032100227C
:101830000592CDE906210890104680210C22244B08
:10184000CDE90132CDE9031004200023AFF2931259
:1018500020A1009022480FF003FA0AA803210022D9
:101860000592CDE906210890104680210C221D4BDF
:10187000CDE90132CDE90310072035E01401002045
:1018800058000020981A00204C0000204F00002033
:10189000490000204A000020480000207C00002071
:1018A00050010020380000203A0000203C000020B9
:1018B0003E0000204000002042000020D4170020FD
:1018C0003C070020C40C0020880F0020000A0020E4
:1018D0003C0500205461736B31207461736B000010
:1018E00078040020000800200023AFF21952A2A1C2
:1018F0000090A4480FF0B4F90AA803210022059231
:10190000CDE906210890104680210C229E4BCDE99E
:101910000132CDE9031006200023AFF2F3629BA150
:1019200000909D480FF09CF90AA80321002205921F
:10193000CDE906210890104680210C22974BCDE975
:101940000132CDE9031008200023AFF6F51294A16F
:10195000009096480FF084F90AA80321002205920E
:10196000CDE906210890104680210C22904BCDE94C
:101970000132CDE9031009200023AFF6BD428DA14D
:1019800000908F480FF06CF90AA8032100220592FD
:10199000CDE906210890104680210C22894BCDE923
:1019A0000132CDE903100A200023AFF6A95286A127
:1019B000009088480FF054F90AA8032100220592EC
:1019C000CDE906210890104680210C22824BCDE9FA
:1019D0000132CDE9031005200023AFF68B727FA101
:1019E000009081480FF03CF90AA8032100220592DB
:1019F000CDE906210890104680210C227B4BCDE9D1
:101A00000132CDE903100B200023794A79A100901F
:101A10007B480FF025F900BF00BF00BF08F014FF9E
:101A2000054600BF00BF77480078401E7549087022
:101A300008460078A0B974480088002809DD00BF76
:101A400000BF284608F004FF00BF00BF0BF0A8F954
:101A50000DE000BF00BF284608F0FAFE00BF06E018
:101A600000BF00BF284608F0F3FE00BF00BF00BF64
:101A70000AA900200FF048FA0BB030BD10B58AB0AB
:101A80000024A82008F012FC4FF4A06007F0AAF987
:101A90004FF4E13008F09EFC00F0DAF901F0CBF8E9
:101AA00005F04AF8594908688047002058490880DD
:101AB00009A80AF063FB00BF00BF00BF08F0C4FE26
:101AC000044600BF00BF4F480078401C4D490870D5
:101AD00000BF00BF204608F0BBFE00BF00BF00BF34
:101AE00009A8032100220592CDE90621089010469D
:101AF00080210C22474BCDE90132CDE903100320B0
:101B00000023AFF2213244A1009046480FF0A8F81C
:101B100000BF00BF00BF08F097FE044600BF00BF33
:101B200038480078401E3749087008460078A0B948
:101B300035480088002809DD00BF00BF204608F0B6
:101B400087FE00BF00BF0BF02BF90DE000BF00BF08
:101B5000204608F07DFE00BF06E000BF00BF204623
:101B600008F076FE00BF00BF00BF09A80AF0CFFD55
:101B700000200AB010BD00007461736B32207461E4
:101B8000736B00003C070020C40A00207461736B73
:101B900033207461736B0000000A0020880D002060
:101BA0007461736B34207461736B0000C40C00208B
:101BB0004C1000207461736B35207461736B0000EE
:101BC000880F0020101300207461736B362074613D
:101BD000736B00004C120020D41500207461736BED
:101BE00037207461736B00001015002098180020D6
:101BF000310700087461736B38207461736B0000E7
:101C0000D41700205001002014010020840000207F
:101C10007C0000207802002073746172745F74612C
:101C2000736B0000B4010020704700BFFEE700BFE7
:101C3000FEE700BFFEE700BFFEE770477047000009
:101C40000CB50020019000907648006840F4803088
:101C50007449086000BF7348006800F400300090C9
:101C60000198401C0190009818B90198B0F5A04F58
:101C7000F1D16C48006800F4003010B101200090F0
:101C800001E0002000900098012846D165484030CE
:101C9000006840F080506349403108606248006845
:101CA00040F44040604908605E48083000685D4983
:101CB000083108600846006840F4004008600846A3
:101CC000006840F4A05008605848091F0860081FC9
:101CD000006840F08070091F086000BF514800682C
:101CE00000F000700028F9D040F2057050490860FB
:101CF0004C480830006820F003004A490831086069
:101D00000846006840F00200086000BF45480830FF
:101D1000006800F00C000828F8D10CBD10B545484B
:101D2000006840F47000434908603E48006840F095
:101D300001003C49086000203A49083108603948F0
:101D400000683D490840374908603C48091D086063
:101D5000081F006820F48020091F08600020314916
:101D60000C310860FFF76CFF4FF00060314980399B
:101D7000086010BD70B5002000220223002402215B
:101D8000284D08352D6805F00C0020B1042806D038
:101D9000082834D107E02A4D2A4E356033E02A4D19
:101DA000284E35602FE01F4D2D1D2D68C5F3805442
:101DB0001C4D2D1D2D6805F03F0154B1224DB5FB82
:101DC000F1F5184E361D3668C6F3881605FB06F287
:101DD00009E01B4DB5FBF1F5124E361D3668C6F312
:101DE000881605FB06F20F4D2D1D2D68C5F3014524
:101DF0006D1C6B00B2FBF3F5124E356003E0104D25
:101E0000104E356000BF00BF064D08352D68C5F384
:101E100003150E4E705D0B4D2D68C540094E3560A3
:101E200070BD0000003802400070004008544007B8
:101E3000003C024088ED00E0FFFFF6FE1030002479
:101E40000024F4006800002000127A006C000020DA
:101E50001CB50121202007F059FB4FF4C060009011
:101E600001208DF8040000208DF806008DF8070091
:101E700003208DF805006946044807F0A9F84FF4DF
:101E8000C061024807F020F91CBD000000140240A8
:101E900001B5BDF800000090BDF80000FC490880C5
:101EA00008BD01B5BDF800000090BDF80000F8497C
:101EB000891C088008BD08B5F548801C0088009082
:101EC000BDF8000008BD03B5BDF80000F04908806A
:101ED000BDF804004FF0D841A1F880000CBD01B559
:101EE000BDF80000FFF7D4FF052008F00EFAFFF759
:101EF000E2FF08BDE7480089E54908807047E449EA
:101F0000891C0880704730B5014601F01F04C1F3F9
:101F10004513CA0AE50205EB43151544A8B230BDC6
:101F200000BF0100A0F10102D0B2FAD1704730B574
:101F300004460D46D748808849F24131884205D091
:101F4000D448808845F21031884214D1D14948895B
:101F5000FFF79EFF2012FFF7A4FFE0B2FFF7A1FFFB
:101F6000CC498889FFF794FF2812FFF79AFFE8B25F
:101F7000FFF797FFABE0C748808846F60401884228
:101F80001DD1C4488079012804D1C2480088401E70
:101F9000001B84B2BF494889FFF77AFF2012FFF780
:101FA00080FFE0B2FFF77DFFBA498889FFF770FF35
:101FB0002812FFF776FFE8B2FFF773FF87E0B54816
:101FC000808841F66311884247D1B2488079A8B928
:101FD000B0480088401E001B84B2AE494889FFF714
:101FE00057FF0020FFF75DFF0020FFF75AFF201288
:101FF000FFF757FFE0B2FFF754FF16E0A549488905
:10200000FFF746FF2012FFF74CFFE0B2FFF749FF52
:10201000A0490988491EC1F30F20FFF742FF9D49DF
:102020000978491EC8B2FFF73CFF9A498889FFF733
:102030002FFF2812FFF735FFE8B2FFF732FF95496F
:102040004988491EC1F30F20FFF72BFF914989787A
:10205000491EC8B2FFF725FF39E08E48808845F257
:102060001051884220D18B494889FFF711FF201277
:10207000FFF717FF87494989491C88B2FFF708FF16
:10208000E0B2FFF70EFF83498889FFF701FF2812AE
:10209000FFF707FF7F498989491C88B2FFF7F8FEDF
:1020A000E8B2FFF7FEFE12E07A488079012804D1F9
:1020B00078480088401E001B84B276494889214632
:1020C000FFF701FF734988892946FFF7FCFE30BD01
:1020D0003EB504460D4600200290019000906D48E8
:1020E0000088A04203DD6B484088A84201DC002044
:1020F0003EBD29462046FFF71AFF6648808849F210
:102100004131884211D06348808846F604018842F4
:102110000BD06048808845F21031884205D05D4878
:10212000808841F66311884203D12E20FFF7B0FE6C
:102130000DE05848808845F21051884204D14FF490
:102140003850FFF7A5FE02E02220FFF7A1FE51481C
:10215000808849F22031884202D10220FFF7E0FE58
:10216000FFF7A9FE02904B48808841F66311884230
:1021700002D1BDF80800BBE70220FFF7D1FEFFF750
:102180009AFE02904348808849F2413188420BD040
:102190004048808845F21031884205D03D4880880B
:1021A00045F21051884210D10220FFF7B9FEFFF727
:1021B00082FE0090BDF80800C0B20190BDF8040096
:1021C0004FF6FF7101EA002001903248808849F201
:1021D0002531884216D02F48808844F235518842F4
:1021E00010D02C488088091F88420BD0294880884D
:1021F0004BF20551884205D0264880884CF20551A3
:10220000884202D1BDF8080072E72248808849F26E
:10221000413188420BD01F48808845F210318842F6
:1022200005D01C48808845F2105188420DD1BDF878
:102230000800C012C002BDF80410891240EA411023
:10224000BDF8001040EAE12052E7BDF80800FFF7B2
:102250005AFE4DE700B50F48808849F24131884267
:1022600011D00C48808846F6040188420BD00948FA
:10227000808845F21031884205D00648808841F6B2
:102280006311884208D12920FFF702FE14E0000004
:102290007E00006C701B0020FE48808845F21051C3
:1022A000884204D14FF42450FFF7F2FD04E040F2DD
:1022B00073110720FFF707FE00BD00B5F5488088C1
:1022C00049F24131884211D0F248808846F6040133
:1022D00088420BD0EF48808845F21031884205D003
:1022E000EC48808841F66311884203D12820FFF72B
:1022F000CFFD0EE0E748808845F21051884204D1B6
:102300004FF42050FFF7C4FD03E000210720FFF742
:10231000DAFD00BDF0B5054600240027DD488079D0
:1023200001280BD1DB48808846F60401884205D09D
:10233000D848808841F66311884208D1D548807911
:10234000F0B9D448808841F66311884218D1082D2D
:1023500015D2DFE805F00406080A0C0E1012062557
:102360000DE007250BE0042509E0052507E0012520
:1023700005E0002503E0032501E0022500BF00BFC2
:10238000C448808849F24131884217D0C1488088CA
:1023900046F60401884211D0BE48808845F21031CB
:1023A00088420BD0BB48808845F21051884205D046
:1023B000B848808841F6631188427DD1082D1CD22F
:1023C000DFE805F00406090C0F12151800BF14E031
:1023D00044F0800411E044F040040EE044F0C004F6
:1023E0000BE044F0200408E044F0600405E044F011
:1023F000A00402E044F0E00400BF00BFA5488088CC
:1024000045F21051884202D14FF4585700E0362768
:10241000A048808845F2103188420DD09D488088C0
:1024200045F21051884207D09A48808841F66311DE
:10243000884201D044F008049648808846F604019A
:10244000884201D144F0020421463846FFF73BFDA3
:102450009048808841F6631188421DD004F0200026
:1024600068B18C4800888B494988884214DA8948C9
:102470000688408887490880084646800CE08548E1
:10248000008884494988884206DD82480688408859
:1024900080490880084646807E48808845F2105171
:1024A000884254D17B494889FFF7F2FC0020FFF7AE
:1024B000F8FC7849498900E078E0491C88B2FFF7C8
:1024C000E7FC0020FFF7EDFC72494989891C88B2BE
:1024D000FFF7DEFC6F490988491EC1F30F20FFF7A3
:1024E000E0FC6C494989C91C88B2FFF7D1FC6949F5
:1024F0000978491EC8B2FFF7D4FC66498889FFF7FE
:10250000C7FC0020FFF7CDFC62498989491C88B2CD
:10251000FFF7BEFC0020FFF7C4FC5E498989891CD7
:1025200088B2FFF7B5FC5B494988491EC1F30F200B
:10253000FFF7B7FC57498989C91C88B2FFF7A8FC87
:1025400054498978491EC8B2FFF7ABFC55E05149A0
:102550004889FFF79DFC0020FFF7A3FC0020FFF750
:10256000A0FC4C490988491EC1F30F20FFF799FCD4
:1025700048490978491EC8B2FFF793FC4549888944
:10258000FFF786FC0020FFF78CFC0020FFF789FC9A
:1025900040494988491EC1F30F20FFF782FC3D499D
:1025A0008978491EC8B2FFF77CFC26E0082D1CD2B2
:1025B000DFE805F004070A0D0F12151844F0300487
:1025C00013E044F0100410E044F020040DE000BFDC
:1025D0000BE044F0380408E044F0280405E044F03F
:1025E000180402E044F0080400BF00BF032744F4CD
:1025F000805421463846FFF766FCF0BD30B50446EE
:102600000D4629462046FFF792FCFFF773FC22484F
:1026100000882249088030BD70B504460D46164634
:102620001C48808849F24131884205D01948808889
:1026300045F21031884214D116494889FFF728FC29
:102640002012FFF72EFCE0B2FFF72BFC114988891E
:10265000FFF71EFC2812FFF724FCE8B2FFF721FC6D
:1026600093E00C48808845F21051884227D10949EF
:102670004889FFF70DFC2012FFF713FC0549498933
:10268000491C88B2FFF704FCE0B2FFF70AFC0149DD
:10269000888905E0701B00207C0000208000006C11
:1026A000FFF7F6FB2812FFF7FCFBFE498989491C5E
:1026B00088B2FFF7EDFBE8B2FFF7F3FB65E0F948FE
:1026C000808841F66311884228D1F648807920B984
:1026D000F4480088401E001B84B2F2494889FFF785
:1026E000D7FB2012FFF7DDFBE0B2FFF7DAFB201289
:1026F000FFF7D7FBE0B2FFF7D4FBEA498889FFF781
:10270000C7FB2812FFF7CDFBE8B2FFF7CAFB281280
:10271000FFF7C7FBE8B2FFF7C4FB36E0E14880886B
:1027200046F6040188421DD1DE488079012804D193
:10273000DC480088401E001B84B2DA494889FFF754
:10274000A7FB2012FFF7ADFBE0B2FFF7AAFBD549CC
:102750008889FFF79DFB2812FFF7A3FBE8B2FFF77C
:10276000A0FB12E0CF488079012804D1CD48008831
:10277000401E001B84B2CB4948892146FFF7A3FBCA
:10278000C84988892946FFF79EFBC6480089C64983
:1027900008804FF0D840A0F8806070BD70B52DED76
:1027A000048B0446BE20FFF773FB0520FFF779FB7F
:1027B000204611F01BFE41EC190B9FEDBC0B53ECB6
:1027C000102B11F063FE41EC180B11F0CBFD85B21C
:1027D0002846FFF766FB0120FFF763FBFF20FFF7AA
:1027E00060FB0020FFF75DFB0020FFF75AFBBDEC0C
:1027F000048B70BD10B50446002C66D1A9498871C0
:10280000F02008804FF4A07048800846808849F284
:10281000413188420BD0A348808846F604018842A3
:1028200005D0A048808845F2103188421AD12C206A
:102830009C4908812A2048812B208881084680886D
:1028400046F60401884205D09648808845F210314A
:10285000884206D14FF4A070924908804FF4F0707E
:102860004880A1E08F48808845F21051884210D1FD
:102870004FF430508B4908814FF4285048814FF471
:102880002C5088814FF4F07008804FF448704880D5
:102890008AE08448808841F6631188420DD12C205B
:1028A000804908812B2048812A2088814FF4F070CC
:1028B00008804FF44870488076E0222079490881EA
:1028C00020204881212088816EE00120754988718F
:1028D0004FF4A0700880F02048800846808849F2B4
:1028E0004131884205D06F48808845F210318842D6
:1028F00007D12C206B4908812A2048812B20888110
:102900003FE06848808846F60401884207D12C20C1
:10291000644908812B2048812A20888131E0614860
:10292000808845F21051884210D14FF430505D49F3
:1029300008814FF4285048814FF42C5088814FF47F
:10294000487008804FF4F07048801AE0554880883D
:1029500041F6631188420DD12C20524908812A206A
:1029600048812B2088814FF4487008804FF4F07024
:10297000488006E022204B49088121204881202000
:1029800088814848808846F60401884205D0454839
:10299000808845F21031884206D14FF4F0704149E9
:1029A00008804FF4A07048800020FFF7B3FC10BDF2
:1029B0002DE9F04F86B004460D469046994604EB4B
:1029C0000800401E86B205EB0900401E87B235485C
:1029D000808849F24131884215D03248808845F2DA
:1029E000103188420FD02F48808846F60401884273
:1029F00009D02C488079012826D12A48808841F6C0
:102A00006311884220D127494889FFF741FA2012F3
:102A1000FFF747FAE0B2FFF744FA3012FFF741FA46
:102A2000F0B2FFF73EFA1F498889FFF731FA281202
:102A3000FFF737FAE8B2FFF734FA3812FFF731FA46
:102A4000F8B2FFF72EFAC1E01648808841F663110C
:102A500088423DD113480088A0EB0800001B84B2D7
:102A600005EB0900401E1FFA80F90E494889FFF75F
:102A70000FFA2012FFF715FAE0B2FFF712FA04EB93
:102A80000801491EC1F30F20FFF70BFA04EB080100
:102A9000491EC8B2FFF705FA02498889FFF7F8F91D
:102AA000281207E0701B00207E00006C66666666D8
:102AB00066660440FFF7F5F9E8B2FFF7F2F94FEA6E
:102AC0002920FFF7EEF909F0FF00FFF7EAF97DE0B2
:102AD000FE48808845F21051884244D1FB4948891C
:102AE000FFF7D6F92012FFF7DCF9F8494989491CAC
:102AF00088B2FFF7CDF9E0B2FFF7D3F9F34949897E
:102B0000891C88B2FFF7C4F93012FFF7CAF9EF4900
:102B10004989C91C88B2FFF7BBF9F0B2FFF7C1F9C8
:102B2000EA498889FFF7B4F92812FFF7BAF9E749AB
:102B30008989491C88B2FFF7ABF9E8B2FFF7B1F910
:102B4000E2498989891C88B2FFF7A2F93812FFF798
:102B5000A8F9DE498989C91C88B2FFF799F9F8B24A
:102B6000FFF79FF932E0D948807901280ED1AA46B3
:102B7000BB46D6480088801B401E80B20190D348D7
:102B80000088001B401E80B2009003E0A246B346BE
:102B900001950097502005905120049052200390F9
:102BA0005320029051460598FFF78DF95946049835
:102BB000FFF789F901990398FFF785F900990298C1
:102BC000FFF781F929462046FFF7B1F906B0BDE8C5
:102BD000F08F70B504460026BC4805884088454300
:102BE000BA48808846F60401884216D1B7488079F1
:102BF000012812D10020B54988712A2048812B2054
:102C0000888100210846FFF792F90120AF498871B9
:102C10002B2048812A20888103E000210846FFF705
:102C200086F9FFF767F9002602E0A9480480761CC0
:102C3000AE42FAD370BD00B5A1B0002020900121B2
:102C40007A2006F063FC0121084606F097FC4FF459
:102C500000401E9001208DF87C0000208DF87E0041
:102C600002208DF87D0001208DF87F001EA9994873
:102C700006F0AEF94CF233701E9002208DF87C0005
:102C800000208DF87E0003208DF87D0001208DF856
:102C90007F001EA9904806F09BF94FF680701E90A9
:102CA00002208DF87C0000208DF87E0003208DF836
:102CB0007D0001208DF87F001EA9884806F088F964
:102CC0004FF480501E9002208DF87C0000208DF87B
:102CD0007E0003208DF87D0001208DF87F001EA965
:102CE0007F4806F075F94FF480501E9002208DF851
:102CF0007C0000208DF87E0003208DF87D000120EF
:102D00008DF87F001EA9774806F062F90C22002199
:102D1000714806F0E8F90C2201216F4806F0E3F94A
:102D20000C2204216C4806F0DEF90C2205216A48C9
:102D300006F0D9F90C220821674806F0D4F90C22D4
:102D40000921654806F0CFF90C220A21624806F0F5
:102D5000CAF90C220E21604806F0C5F90C220F2199
:102D60005D4806F0C0F90C2207215C4806F0BBF96B
:102D70000C220821594806F0B6F90C2209215748BF
:102D800006F0B1F90C220A21544806F0ACF90C22E5
:102D90000B21524806F0A7F90C2211464F4806F0C5
:102DA000A2F90C220D214D4806F09DF90C220E21AE
:102DB0004A4806F098F90C220F21484806F093F98A
:102DC0000C221146464806F08EF90C221146454861
:102DD00006F089F90F200890002009903C200A9005
:102DE00000200B900C900D900E9009200190002077
:102DF0000290082003900020049005900690079010
:102E000006200F90002010901190102012900020AA
:102E1000139015901490169017904FF480501890BE
:102E2000002019904FF480401A9000201B9008A8B1
:102E30001C9001A81D900FA806F001FF012106209B
:102E400006F088FF322007F08AFA01210020FFF700
:102E50003AF8322007F083FA0020FFF740F81B49C8
:102E6000888008468088FF280ADB084680884FF65D
:102E7000FF71884204D015488088B0F5134F7DD18A
:102E8000D320FFF705F8FFF716F810498880FFF701
:102E900012F80E498880FFF70EF80C498880084622
:102EA00080884FF6FF7101EA002008498880FFF70B
:102EB00002F80649898808430449888008468088C2
:102EC00049F24131884259D0BF200DE0701B0020EB
:102ED0008000006C00040240000C02400010024020
:102EE0000014024000180240FEF7D2FFFEF7E3FF95
:102EF000FE498880FEF7DFFFFC498880FEF7DBFF94
:102F0000FA498880FEF7D7FFF8498880084680880C
:102F10004FF6FF7101EA0020F4498880FEF7CBFFED
:102F2000F24989880843F14988800846808846F636
:102F3000040188427AD0D420FEF7AAFFFEF7BBFF37
:102F4000EA498880FEF7B7FFE8498880FEF7B3FFBB
:102F5000E6498880084680884FF6FF7101EA002024
:102F6000E2498880FEF7A7FFE04989880843DF49E6
:102F700088800846808845F2103100E056E088429B
:102F800054D04FF45A40FEF783FFFEF794FFD74921
:102F900088804FF45B40FEF77BFFFEF78CFFD34940
:102FA0008880084680884FF6FF7101EA0020CF49EB
:102FB00088804FF45C40FEF76BFFFEF77CFFCB4947
:102FC00089880843C949888008468088B0F5004F41
:102FD00002D145F210508880C448808845F21051D3
:102FE000884223D0A120FEF753FFFEF764FFBF49BC
:102FF0008880FEF760FFBD498880084680884FF6CC
:10300000FF7101EA0020B9498880FEF754FFB749F3
:1030100089880843B54988800846808845F26171EF
:10302000884203D141F66310B0498880AF48808858
:1030300049F24131884211D0AC48808845F21031C4
:1030400088420BD0A948808845F21051884205D0AB
:10305000A648808841F6631188421DD1A4480068C3
:1030600020F00F004FF02041C1F81C010846D0F8B5
:103070001C0120F47060C1F81C010846D0F81C0146
:1030800040F00300C1F81C010846D0F81C0140F4D0
:103090000070C1F81C0128E09448808846F60401BD
:1030A000884205D0914880884CF2055188421CD155
:1030B0008F48006820F00F004FF02041C1F81C013C
:1030C0000846D0F81C0120F47060C1F81C010846C5
:1030D000D0F81C0140F00A00C1F81C010846D0F8E5
:1030E0001C0140F44060C1F81C018048818881A027
:1030F00010F0FEFD7D48808849F2413188427CD144
:10310000CF20FEF7C5FE0020FEF7CBFE2098401C26
:103110002090C120FEF7C5FE3020FEF7C2FEED2054
:10312000FEF7B6FE6420FEF7BCFE0320FEF7B9FEF4
:103130001220FEF7B6FE8120FEF7B3FEE820FEF770
:10314000A7FE8520FEF7ADFE1020FEF7AAFE7A202E
:10315000FEF7A7FECB20FEF79BFE3920FEF7A1FE6F
:103160002C20FEF79EFE0020FEF79BFE3420FEF78B
:1031700098FE0220FEF795FEF720FEF789FE20203C
:10318000FEF78FFEEA20FEF783FE0020FEF789FEA1
:103190000020FEF786FEC020FEF77AFE1B20FEF719
:1031A00080FEC120FEF774FE0120FEF77AFEC520E6
:1031B000FEF76EFE3020FEF774FE3020FEF771FE43
:1031C000C720FEF765FEB720FEF76BFE3620FEF740
:1031D0005FFE4820FEF765FE3A20FEF759FE5520B7
:1031E000FEF75FFEB120FEF753FE0020FEF759FE0A
:1031F0001A20FEF756FEB62000E0A7E0FEF748FED4
:103200000A20FEF74EFEA220FEF74BFEF220FEF74C
:103210003FFE0020FEF745FE2620FEF739FE012086
:10322000FEF73FFEE020FEF733FE0F20FEF739FEEB
:103230002A20FEF736FE2820FEF733FE0820FEF790
:1032400030FE0E20FEF72DFE0820FEF72AFE542049
:10325000FEF727FEA920FEF724FE4320FEF721FEFD
:103260000A20FEF71EFE0F20FEF71BFE0020FEF7D1
:1032700018FE0020FEF715FE0020FEF712FE0020CB
:10328000FEF70FFEE120FEF703FE0020FEF709FE29
:103290001520FEF706FE1720FEF703FE0720FEF7B7
:1032A00000FE1120FEF7FDFD0620FEF7FAFD2B20A3
:1032B000FEF7F7FD5620FEF7F4FD3C20FEF7F1FD8A
:1032C0000520FEF7EEFD1020FEF7EBFD0F20FEF7C8
:1032D000E8FD3F20FEF7E5FD3F20FEF7E2FD0F2071
:1032E000FEF7DFFD2B20FEF7D3FD09E0701B002069
:1032F0001C0100A04C43442049443A25780D0A00A3
:103300000020FEF7CEFD0020FEF7CBFD0120FEF7EA
:10331000C8FD3F20FEF7C5FD2A20FEF7B9FD0020BD
:10332000FEF7BFFD0020FEF7BCFD0020FEF7B9FD53
:10333000EF20FEF7B6FD1120FEF7AAFD782007F07A
:103340000EF82920FEF7A4FD03F01DB9FE48808881
:1033500046F6040188427CD11120FEF799FD142025
:1033600006F0FDFFD020FEF793FD0720FEF799FD44
:103370004220FEF796FD1D20FEF793FDD120FEF7BB
:1033800087FD0020FEF78DFD1A20FEF78AFD09203B
:10339000FEF787FDD220FEF77BFD0120FEF781FDC1
:1033A0002220FEF77EFDC020FEF772FD1020FEF702
:1033B00078FD3B20FEF775FD0020FEF772FD022030
:1033C000FEF76FFD1120FEF76CFDC520FEF760FDD6
:1033D0000320FEF766FDC820FEF75AFD0020FEF729
:1033E00060FD2520FEF75DFD2120FEF75AFD05203A
:1033F000FEF757FD0020FEF754FD0A20FEF751FDB1
:103400006520FEF74EFD2520FEF74BFD7720FEF7E9
:1034100048FD5020FEF745FD0F20FEF742FD00203D
:10342000FEF73FFDF820FEF733FD0120FEF739FDE2
:10343000FE20FEF72DFD0020FEF733FD0220FEF7F3
:1034400030FD2020FEF724FD3620FEF721FD082068
:1034500000E02CE0FEF725FD3A20FEF719FD55208F
:10346000FEF71FFD2B20FEF713FD0020FEF719FDD0
:103470000020FEF716FD0120FEF713FD3F20FEF7AA
:1034800010FD2A20FEF704FD0020FEF70AFD0020B3
:10349000FEF707FD0120FEF704FDDF20FEF701FD2A
:1034A000782006F05CFF2920FEF7F2FC4CE7A648E6
:1034B000808845F21031884240F07C87ED20FEF78D
:1034C000E7FC0120FEF7EDFCFE20FEF7EAFCEE2013
:1034D000FEF7DEFCDE20FEF7E4FC2120FEF7E1FC37
:1034E000F120FEF7D5FC0120FEF7DBFCDF20FEF724
:1034F000CFFC1020FEF7D5FCC420FEF7C9FC8F20BE
:10350000FEF7CFFCC620FEF7C3FC0020FEF7C9FC87
:10351000E220FEF7C6FCE220FEF7C3FCE220FEF745
:10352000C0FCBF20FEF7B4FCAA20FEF7BAFCB02016
:10353000FEF7AEFC0D20FEF7B4FC0020FEF7B1FC58
:103540000D20FEF7AEFC0020FEF7ABFC1120FEF7CD
:10355000A8FC0020FEF7A5FC1920FEF7A2FC002025
:10356000FEF79FFC2120FEF79CFC0020FEF799FC53
:103570002D20FEF796FC0020FEF793FC3D20FEF781
:1035800090FC0020FEF78DFC5D20FEF78AFC0020F9
:10359000FEF787FC5D20FEF784FC0020FEF781FC2F
:1035A000B120FEF775FC8020FEF77BFC0020FEF7C3
:1035B00078FC8B20FEF775FC0020FEF772FC96204D
:1035C000FEF76FFC0020FEF76CFCB220FEF760FCFB
:1035D0000020FEF766FC0020FEF763FC0220FEF7E9
:1035E00060FC0020FEF75DFC0320FEF75AFC002083
:1035F000FEF757FCB320FEF74BFC0020FEF751FC12
:103600000020FEF74EFC0020FEF74BFC0020FEF7EA
:1036100048FC0020FEF745FC0020FEF742FC00209D
:10362000FEF73FFC0020FEF73CFC0020FEF739FCD3
:103630000020FEF736FC0020FEF733FC0020FEF7EA
:1036400030FC0020FEF72DFC0020FEF72AFC0020B5
:10365000FEF727FC0020FEF724FC0020FEF721FCEB
:103660000020FEF71EFC0020FEF71BFC0020FEF7EA
:1036700018FC0020FEF715FC0020FEF712FC0020CD
:10368000FEF70FFC0020FEF70CFCB420FEF700FC58
:103690008B20FEF706FC0020FEF703FC9620FEF7C9
:1036A00000FC0020FEF7FDFBA120FEF7FAFB002046
:1036B000FEF7F7FBB520FEF7EBFB0220FEF7F1FB70
:1036C0000020FEF7EEFB0320FEF7EBFB0020FEF7E9
:1036D000E8FB0420FEF7E5FB0020FEF7E2FBB62046
:1036E000FEF7D6FB0020FEF7DCFB0020FEF7D9FB3F
:1036F000B720FEF7CDFB0020FEF7D3FB0020FEF73E
:10370000D0FB3F20FEF7CDFB0020FEF7CAFB5E207A
:10371000FEF7C7FB0020FEF7C4FB6420FEF7C1FBE9
:103720000020FEF7BEFB8C20FEF7BBFB0020FEF75F
:10373000B8FBAC20FEF7B5FB0020FEF7B2FBDC20A7
:10374000FEF7AFFB002001E0701B0020FEF7A9FB95
:103750007020FEF7A6FB0020FEF7A3FB9020FEF7EB
:10376000A0FB0020FEF79DFBEB20FEF79AFB00205C
:10377000FEF797FBDC20FEF794FB0020FEF791FBA1
:10378000B820FEF785FB0020FEF78BFB0020FEF73C
:1037900088FB0020FEF785FB0020FEF782FB00205F
:1037A000FEF77FFB0020FEF77CFB0020FEF779FB95
:1037B0000020FEF776FBBA20FEF76AFB2420FEF716
:1037C00070FB0020FEF76DFB0020FEF76AFB002077
:1037D000FEF767FBC120FEF75BFB2020FEF761FBD5
:1037E0000020FEF75EFB5420FEF75BFB0020FEF797
:1037F00058FBFF20FEF755FB0020FEF752FBC220CE
:10380000FEF746FB0A20FEF74CFB0020FEF749FBC3
:103810000420FEF746FB0020FEF743FBC320FEF723
:1038200037FB3C20FEF73DFB0020FEF73AFB3A2039
:10383000FEF737FB0020FEF734FB3920FEF731FBA3
:103840000020FEF72EFB3720FEF72BFB0020FEF7B3
:1038500028FB3C20FEF725FB0020FEF722FB36204C
:10386000FEF71FFB0020FEF71CFB3220FEF719FBC2
:103870000020FEF716FB2F20FEF713FB0020FEF7BB
:1038800010FB2C20FEF70DFB0020FEF70AFB292081
:10389000FEF707FB0020FEF704FB2620FEF701FBE6
:1038A0000020FEF7FEFA2420FEF7FBFA0020FEF7C8
:1038B000F8FA2420FEF7F5FA0020FEF7F2FA2320AA
:1038C000FEF7EFFA0020FEF7ECFA3C20FEF7E9FAEB
:1038D0000020FEF7E6FA3620FEF7E3FA0020FEF7B6
:1038E000E0FA3220FEF7DDFA0020FEF7DAFA2F20A8
:1038F000FEF7D7FA0020FEF7D4FA2C20FEF7D1FA13
:103900000020FEF7CEFA2920FEF7CBFA0020FEF7C2
:10391000C8FA2620FEF7C5FA0020FEF7C2FA2420D6
:10392000FEF7BFFA0020FEF7BCFA2420FEF7B9FA32
:103930000020FEF7B6FA2320FEF7B3FA0020FEF7C8
:10394000B0FAC420FEF7A4FA6220FEF7AAFA00201B
:10395000FEF7A7FA0520FEF7A4FA0020FEF7A1FA69
:103960008420FEF79EFA0020FEF79BFAF020FEF777
:1039700098FA0020FEF795FA1820FEF792FA002038
:10398000FEF78FFAA420FEF78CFA0020FEF789FAE2
:103990001820FEF786FA0020FEF783FA5020FEF783
:1039A00080FA0020FEF77DFA0C20FEF77AFA00205C
:1039B000FEF777FA1720FEF774FA0020FEF771FA87
:1039C0009520FEF76EFA0020FEF76BFAF320FEF763
:1039D00068FA0020FEF765FAE620FEF762FA00209A
:1039E000FEF75FFAC520FEF753FA3220FEF759FAC8
:1039F0000020FEF756FA4420FEF753FA0020FEF7A7
:103A000050FA6520FEF74DFA0020FEF74AFA7620BC
:103A1000FEF747FA0020FEF744FA8820FEF741FA45
:103A20000020FEF73EFAC620FEF732FA2020FEF70D
:103A300038FA0020FEF735FA1720FEF732FA002098
:103A4000FEF72FFA0120FEF72CFA0020FEF729FAE4
:103A5000C720FEF71DFA0020FEF723FA0020FEF72C
:103A600020FA0020FEF71DFA0020FEF71AFAC820FF
:103A7000FEF70EFA0020FEF714FA0020FEF711FA06
:103A80000020FEF70EFA0020FEF70BFAC920FEF721
:103A9000FFF90020FEF705FA0020FEF702FA0020E9
:103AA000FEF7FFF90020FEF7FCF90020FEF7F9F918
:103AB0000020FEF7F6F90020FEF7F3F90020FEF7EC
:103AC000F0F90020FEF7EDF90020FEF7EAF90020FA
:103AD000FEF7E7F90020FEF7E4F90020FEF7E1F930
:103AE0000020FEF7DEF90020FEF7DBF90020FEF7EC
:103AF000D8F9E020FEF7CCF91620FEF7D2F9002025
:103B0000FEF7CFF91C20FEF7CCF90020FEF7C9F92B
:103B10002120FEF7C6F90020FEF7C3F93620FEF794
:103B2000C0F90020FEF7BDF94620FEF7BAF90020E3
:103B3000FEF7B7F95220FEF7B4F90020FEF7B1F90D
:103B40006420FEF7AEF90020FEF7ABF97A20FEF70D
:103B5000A8F90020FEF7A5F98B20FEF7A2F90020B6
:103B6000FEF79FF99920FEF79CF90020FEF799F9DE
:103B7000A820FEF796F90020FEF793F9B920FEF78A
:103B800090F90020FEF78DF9C420FEF78AF9002095
:103B9000FEF787F9CA20FEF784F90020FEF781F9C5
:103BA000D220FEF77EF90020FEF77BF9D920FEF740
:103BB00078F90020FEF775F9E020FEF772F9002091
:103BC000FEF76FF9F320FEF76CF90020FEF769F9B4
:103BD000E120FEF75DF91620FEF763F90020FEF7FD
:103BE00060F91C20FEF75DF90020FEF75AF922204B
:103BF000FEF757F90020FEF754F93620FEF751F989
:103C00000020FEF74EF94520FEF74BF90020FEF7A5
:103C100048F95220FEF745F90020FEF742F96420EA
:103C2000FEF73FF90020FEF73CF97A20FEF739F95C
:103C30000020FEF736F98B20FEF733F90020FEF75F
:103C400030F99920FEF72DF90020FEF72AF9A82077
:103C5000FEF727F90020FEF724F9B920FEF721F935
:103C60000020FEF71EF9C420FEF71BF90020FEF726
:103C700018F9CA20FEF715F90020FEF712F9D22034
:103C8000FEF70FF90020FEF70CF9D820FEF709F92E
:103C90000020FEF706F9E020FEF703F90020FEF70A
:103CA00000F9F320FEF7FDF80020FEF7FAF8E22015
:103CB000FEF7EEF80520FEF7F4F80020FEF7F1F825
:103CC0000B20FEF7EEF80020FEF7EBF81B20FEF7C6
:103CD000E8F80020FEF7E5F83420FEF7E2F80020CF
:103CE000FEF7DFF84420FEF7DCF80020FEF7D9F8F5
:103CF0004F20FEF7D6F80020FEF7D3F86120FEF73C
:103D0000D0F80020FEF7CDF87920FEF7CAF80020A1
:103D1000FEF7C7F88820FEF7C4F80020FEF7C1F8C8
:103D20009720FEF7BEF80020FEF7BBF8A620FEF7AE
:103D3000B8F80020FEF7B5F8B720FEF7B2F800207B
:103D4000FEF7AFF8C220FEF7ACF80020FEF7A9F8A6
:103D5000C720FEF7A6F80020FEF7A3F8D120FEF753
:103D6000A0F80020FEF79DF8D620FEF79AF8002074
:103D7000FEF797F8DD20FEF794F80020FEF791F8A3
:103D8000F320FEF78EF80020FEF78BF8E320FEF715
:103D90007FF80520FEF785F80020FEF782F80A205C
:103DA000FEF77FF80020FEF77CF81C20FEF779F87C
:103DB0000020FEF776F83320FEF773F80020FEF7B8
:103DC00070F84420FEF76DF80020FEF76AF85020E6
:103DD000FEF767F80020FEF764F86220FEF761F84E
:103DE0000020FEF75EF87820FEF75BF80020FEF773
:103DF00058F88820FEF755F80020FEF752F8972073
:103E0000FEF74FF80020FEF74CF8A620FEF749F821
:103E10000020FEF746F8B720FEF743F80020FEF733
:103E200040F8C220FEF73DF80020FEF73AF8C72020
:103E3000FEF737F80020FEF734F8D120FEF731F80E
:103E40000020FEF72EF8D520FEF72BF80020FEF715
:103E500028F8DD20FEF725F80020FEF722F8F320F1
:103E6000FEF71FF80020FEF71CF8E420FEF710F81C
:103E70000120FEF716F80020FEF713F80120FEF7E8
:103E800010F80020FEF70DF80220FEF70AF80020D7
:103E9000FEF707F82A20FEF704F80020FEF701F8E5
:103EA0003C20FDF7FEFF0020FDF7FBFF4B20FDF758
:103EB000F8FF0020FDF7F5FF5D20FDF7F2FF002081
:103EC000FDF7EFFF7420FDF7ECFF0020FDF7E9FFA1
:103ED0008420FDF7E6FF0020FDF7E3FF9320FDF7C8
:103EE000E0FF0020FDF7DDFFA220FDF7DAFF002054
:103EF000FDF7D7FFB320FDF7D4FF0020FDF7D1FF7A
:103F0000BE20FDF7CEFF0020FDF7CBFFC420FDF75C
:103F1000C8FF0020FDF7C5FFCD20FDF7C2FF002040
:103F2000FDF7BFFFD320FDF7BCFF0020FDF7B9FF71
:103F3000DD20FDF7B6FF0020FDF7B3FFF320FDF70E
:103F4000B0FF0020FDF7ADFFE520FDF7A1FF002049
:103F5000FDF7A7FF0020FDF7A4FF0020FDF7A1FF5C
:103F60000020FDF79EFF0220FDF79BFF0020FDF7DC
:103F700098FF2920FDF795FF0020FDF792FF3C20D8
:103F8000FDF78FFF0020FDF78CFF4B20FDF789FF29
:103F90000020FDF786FF5D20FDF783FF0020FDF781
:103FA00080FF7420FDF77DFF0020FDF77AFF84205D
:103FB000FDF777FF0020FDF774FF9320FDF771FFF9
:103FC0000020FDF76EFFA220FDF76BFF0020FDF73C
:103FD00068FFB320FDF765FF0020FDF762FFBE20FC
:103FE000FDF75FFF0020FDF75CFFC420FDF759FFE0
:103FF0000020FDF756FFCD20FDF753FF0020FDF711
:1040000050FFD320FDF74DFF0020FDF74AFFDC20D5
:10401000FDF747FF0020FDF744FFF320FDF741FFC8
:104020000020FDF73EFFE620FDF732FF1120FDF7EF
:1040300038FF0020FDF735FF3420FDF732FF002068
:10404000FDF72FFF5620FDF72CFF0020FDF729FF7D
:104050007620FDF726FF0020FDF723FF7720FDF7F0
:1040600020FF0020FDF71DFF6620FDF71AFF00204E
:10407000FDF717FF8820FDF714FF0020FDF711FF63
:104080009920FDF70EFF0020FDF70BFFBB20FDF789
:1040900008FF0020FDF705FF9920FDF702FF002033
:1040A000FDF7FFFE6620FDF7FCFE0020FDF7F9FEA0
:1040B0005520FDF7F6FE0020FDF7F3FE5520FDF735
:1040C000F0FE0020FDF7EDFE4520FDF7EAFE0020A2
:1040D000FDF7E7FE4320FDF7E4FE0020FDF7E1FEDB
:1040E0004420FDF7DEFE0020FDF7DBFEE720FDF7B4
:1040F000CFFE3220FDF7D5FE0020FDF7D2FE552081
:10410000FDF7CFFE0020FDF7CCFE7620FDF7C9FEBF
:104110000020FDF7C6FE6620FDF7C3FE0020FDF778
:10412000C0FE6720FDF7BDFE0020FDF7BAFE672048
:10413000FDF7B7FE0020FDF7B4FE8720FDF7B1FEC6
:104140000020FDF7AEFE9920FDF7ABFE0020FDF745
:10415000A8FEBB20FDF7A5FE0020FDF7A2FE9920DA
:10416000FDF79FFE0020FDF79CFE7720FDF799FEEE
:104170000020FDF796FE4420FDF793FE0020FDF79A
:1041800090FE5620FDF78DFE0020FDF78AFE2320CD
:10419000FDF787FE0020FDF784FE3320FDF781FE4A
:1041A0000020FDF77EFE4520FDF77BFE0020FDF799
:1041B00078FEE820FDF76CFE0020FDF772FE00207F
:1041C000FDF76FFE9920FDF76CFE0020FDF769FEFC
:1041D0008720FDF766FE0020FDF763FE8820FDF7CF
:1041E00060FE0020FDF75DFE7720FDF75AFE0020FF
:1041F000FDF757FE6620FDF754FE0020FDF751FE47
:104200008820FDF74EFE0020FDF74BFEAA20FDF7AB
:1042100048FE0020FDF745FEBB20FDF742FE0020D2
:10422000FDF73FFE9920FDF73CFE0020FDF739FE2B
:104230006620FDF736FE0020FDF733FE5520FDF722
:1042400030FE0020FDF72DFE5520FDF72AFE002050
:10425000FDF727FE4420FDF724FE0020FDF721FE98
:104260004420FDF71EFE0020FDF71BFE5520FDF744
:1042700018FE0020FDF715FEE920FDF709FEAA2033
:10428000FDF70FFE0020FDF70CFE0020FDF709FEF4
:104290000020FDF706FE0020FDF7FAFDAA20FDF73D
:1042A00000FECF20FDF7F4FD0020FDF7FAFD002011
:1042B000FDF7F7FD0020FDF7F4FD0020FDF7F1FD0F
:1042C0000020FDF7EEFD0020FDF7EBFD0020FDF7DF
:1042D000E8FD0020FDF7E5FD0020FDF7E2FD0020F0
:1042E000FDF7DFFD0020FDF7DCFD0020FDF7D9FD27
:1042F0000020FDF7D6FD0020FDF7D3FD0020FDF7DF
:10430000D0FD0020FDF7CDFD0020FDF7CAFDF02017
:10431000FDF7BEFD0020FDF7C4FD5020FDF7C1FDF7
:104320000020FDF7BEFD0020FDF7BBFD0020FDF7DE
:10433000B8FDF320FDF7ACFD0020FDF7B2FDF9203C
:10434000FDF7A6FD0620FDF7ACFD1020FDF7A9FD49
:104350002920FDF7A6FD0020FDF7A3FD3A20FDF77B
:1043600097FD5520FDF79DFD1120FDF791FD64207F
:1043700005F0F5FF2920FDF78BFD3520FDF788FDC1
:104380000020FDF78EFD5120FDF782FDFF20FDF797
:1043900088FD5320FDF77CFD2C20FDF782FD552084
:1043A000FDF776FD8220FDF77CFD2C20FDF770FDEA
:1043B00002F0E9B8FE48808845F2105188427DD16C
:1043C00055214FF47040FDF77EFDAA214FF2010008
:1043D000FDF779FD52214FF20200FDF774FD08212F
:1043E0004FF20300FDF76FFD01214FF20400FDF7CE
:1043F0006AFD0D214FF43040FDF765FD0D214BF2B4
:104400000100FDF760FD0D214BF20200FDF75BFDA1
:1044100034214FF43640FDF756FD34214BF2016054
:10442000FDF751FD34214BF20260FDF74CFD0D21EB
:104430004FF43140FDF747FD0D214BF20110FDF720
:1044400042FD0D214BF20210FDF73DFD34214FF4EA
:104450003740FDF738FD34214BF20170FDF733FD95
:1044600034214BF20270FDF72EFD00214FF4324053
:10447000FDF729FD00214BF20120FDF724FD00216D
:104480004BF20220FDF71FFD24214FF43840FDF7C9
:104490001AFD24214BF60100FDF715FD24214BF6F2
:1044A0000200FDF710FD01214FF43F40FDF70BFD29
:1044B0000F214FF43340FDF706FD00E0FDE30F212F
:1044C0004BF20130FDF7FFFC0F214BF20230FDF7FC
:1044D000FAFC34214FF43940FDF7F5FC34214BF65A
:1044E0000110FDF7F0FC34214BF60210FDF7EBFC58
:1044F00008214FF43540FDF7E6FC08214BF201504E
:10450000FDF7E1FC08214BF20250FDF7DCFC032132
:104510004FF44240FDF7D7FC24214FF43A40FDF719
:10452000D2FC24214BF60120FDF7CDFC24214BF6D3
:104530000220FDF7C8FC00214FF43C40FDF7C3FC0E
:1045400078214BF60140FDF7BEFC00214BF60240FE
:10455000FDF7B9FC00214FF43D40FDF7B4FC782194
:104560004BF60150FDF7AFFC00214BF60250FDF772
:10457000AAFC00214FF43E40FDF7A5FC64214BF658
:104580000160FDF7A0FC00214FF45140FDF79BFCBA
:1045900033214DF20110FDF796FC00214DF202107F
:1045A000FDF791FC34214DF20310FDF78CFC002146
:1045B0004DF20410FDF787FC3A214DF20510FDF78E
:1045C00082FC00214DF20610FDF77DFC4A214DF2E0
:1045D0000710FDF778FC00214DF20810FDF773FC81
:1045E0005C214DF20910FDF76EFC00214DF20A101E
:1045F000FDF769FC81214DF20B10FDF764FC0021F1
:104600004DF20C10FDF75FFCA6214DF20D10FDF7E9
:104610005AFC00214DF20E10FDF755FCE5214DF23C
:104620000F10FDF750FC01214DF21010FDF74BFC6F
:1046300013214DF21110FDF746FC01214DF212102D
:10464000FDF741FC54214DF21310FDF73CFC012114
:104650004DF21410FDF737FC82214DF21510FDF7D5
:1046600032FC01214DF21610FDF72DFCCA214DF24E
:104670001710FDF728FC02214DF21810FDF723FC5E
:1046800000214DF21910FDF71EFC02214DF21A1007
:10469000FDF719FC01214DF21B10FDF714FC02215E
:1046A0004DF21C10FDF70FFC34214DF21D10FDF7EB
:1046B0000AFC02214DF21E10FDF705FC67214DF2A8
:1046C0001F10FDF700FC02214DF22010FDF7FBFB4F
:1046D00084214DF22110FDF7F6FB02214DF222104C
:1046E000FDF7F1FBA4214DF22310FDF7ECFB0221B5
:1046F0004DF22410FDF7E7FBB7214DF22510FDF731
:10470000E2FB02214DF22610FDF7DDFBCF214DF239
:104710002710FDF7D8FB02214DF22810FDF7D3FB3F
:10472000DE214DF22910FDF7CEFB02214DF22A10B9
:10473000FDF7C9FBF2214DF22B10FDF7C4FB02215E
:104740004DF22C10FDF7BFFBFE214DF22D10FDF7B1
:10475000BAFB03214DF22E10FDF7B5FB10214DF2EF
:104760002F10FDF7B0FB03214DF23010FDF7ABFB2E
:1047700033214DF23110FDF7A6FB03214DF232102B
:10478000FDF7A1FB6D214DF23310FDF79CFB0021DD
:104790004FF45240FDF797FB33214DF20120FDF716
:1047A00092FB00214DF20220FDF78DFB342101E048
:1047B000701B00204DF20320FDF785FB00214DF218
:1047C0000420FDF780FB3A214DF20520FDF77BFB2D
:1047D00000214DF20620FDF776FB4A214DF207201D
:1047E000FDF771FB00214DF20820FDF76CFB5C2109
:1047F0004DF20920FDF767FB00214DF20A20FDF77D
:1048000062FB81214DF20B20FDF75DFB00214DF293
:104810000C20FDF758FBA6214DF20D20FDF753FBB0
:1048200000214DF20E20FDF74EFBE5214DF20F2049
:10483000FDF749FB01214DF21020FDF744FB132148
:104840004DF21120FDF73FFB01214DF21220FDF743
:104850003AFB54214DF21320FDF735FB01214DF2B7
:104860001420FDF730FB82214DF21520FDF72BFBC4
:1048700001214DF21620FDF726FBCA214DF217202B
:10488000FDF721FB02214DF21820FDF71CFB002152
:104890004DF21920FDF717FB02214DF21A20FDF70A
:1048A00012FB01214DF21B20FDF70DFB02214DF201
:1048B0001C20FDF708FB34214DF21D20FDF703FB02
:1048C00002214DF21E20FDF7FEFA67214DF21F2056
:1048D000FDF7F9FA02214DF22020FDF7F4FA8421C8
:1048E0004DF22120FDF7EFFA02214DF22220FDF7D3
:1048F000EAFAA4214DF22320FDF7E5FA02214DF258
:104900002420FDF7E0FAB7214DF22520FDF7DBFA70
:1049100002214DF22620FDF7D6FACF214DF22720B5
:10492000FDF7D1FA02214DF22820FDF7CCFADE2165
:104930004DF22920FDF7C7FA02214DF22A20FDF79A
:10494000C2FAF2214DF22B20FDF7BDFA02214DF201
:104950002C20FDF7B8FAFE214DF22D20FDF7B3FA19
:1049600003214DF22E20FDF7AEFA10214DF22F203B
:10497000FDF7A9FA03214DF23020FDF7A4FA332107
:104980004DF23120FDF79FFA03214DF23220FDF761
:104990009AFA6D214DF23320FDF795FA00214FF47C
:1049A0005340FDF790FA33214DF20130FDF78BFAB9
:1049B00000214DF20230FDF786FA34214DF203302A
:1049C000FDF781FA00214DF20430FDF77CFA3A211F
:1049D0004DF20530FDF777FA00214DF20630FDF774
:1049E00072FA4A214DF20730FDF76DFA00214DF2BF
:1049F0000830FDF768FA5C214DF20930FDF763FAE3
:104A000000214DF20A30FDF75EFA81214DF20B30A4
:104A1000FDF759FA00214DF20C30FDF754FAA621AA
:104A20004DF20D30FDF74FFA00214DF20E30FDF73B
:104A30004AFAE5214DF20F30FDF745FA01214DF21A
:104A40001030FDF740FA13214DF21130FDF73BFA1B
:104A500001214DF21230FDF736FA54214DF2133098
:104A6000FDF731FA01214DF21430FDF72CFA8221C5
:104A70004DF21530FDF727FA01214DF21630FDF702
:104A800022FACA214DF21730FDF71DFA02214DF22C
:104A90001830FDF718FA00214DF21930FDF713FA1E
:104AA00002214DF21A30FDF70EFA01214DF21B30B2
:104AB000FDF709FA02214DF21C30FDF704FA34210A
:104AC0004DF21D30FDF7FFF902214DF21E30FDF7CA
:104AD000FAF967214DF21F30FDF7F5F902214DF289
:104AE0002030FDF7F0F984214DF22130FDF7EBF98C
:104AF00002214DF22230FDF7E6F9A4214DF22330D8
:104B0000FDF7E1F902214DF22430FDF7DCF9B72180
:104B10004DF22530FDF7D7F902214DF22630FDF791
:104B2000D2F9CF214DF22730FDF7CDF902214DF218
:104B30002830FDF7C8F9DE214DF22930FDF7C3F921
:104B400002214DF22A30FDF7BEF9F2214DF22B3051
:104B5000FDF7B9F902214DF22C30FDF7B4F9FE2131
:104B60004DF22D30FDF7AFF903214DF22E30FDF758
:104B7000AAF910214DF22F30FDF7A5F903214DF2CE
:104B80003030FDF7A0F933214DF23130FDF79BF9BC
:104B900003214DF23230FDF796F96D214DF233309D
:104BA000FDF791F900214FF45440FDF78CF93321C2
:104BB0004DF20140FDF787F900214DF20240FDF76B
:104BC00082F934214DF20340FDF77DF900214DF2C9
:104BD0000440FDF778F93A214DF20540FDF773F9ED
:104BE00000214DF20640FDF76EF94A214DF20740D3
:104BF000FDF769F900214DF20840FDF764F95C21E9
:104C00004DF20940FDF75FF900214DF20A40FDF732
:104C10005AF981214DF20B40FDF755F900214DF273
:104C20000C40FDF750F9A6214DF20D40FDF74BF970
:104C300000214DF20E40FDF746F9E5214DF20F40FF
:104C4000FDF741F901214DF21040FDF73CF9132128
:104C50004DF21140FDF737F901214DF21240FDF7F9
:104C600032F954214DF21340FDF72DF901214DF297
:104C70001440FDF728F982214DF21540FDF723F984
:104C800001214DF21640FDF71EF9CA214DF21740E1
:104C9000FDF719F902214DF21840FDF714F9002132
:104CA0004DF21940FDF70FF902214DF21A40FDF7C0
:104CB0000AF901214DF21B4000E006E3FDF703F97C
:104CC00002214DF21C40FDF7FEF834214DF21D404B
:104CD000FDF7F9F802214DF21E40FDF7F4F86721C7
:104CE0004DF21F40FDF7EFF802214DF22040FDF795
:104CF000EAF884214DF22140FDF7E5F802214DF25A
:104D00002240FDF7E0F8A4214DF22340FDF7DBF847
:104D100002214DF22440FDF7D6F8B7214DF225408F
:104D2000FDF7D1F802214DF22640FDF7CCF8CF2156
:104D30004DF22740FDF7C7F802214DF22840FDF75C
:104D4000C2F8DE214DF22940FDF7BDF802214DF2F7
:104D50002A40FDF7B8F8F2214DF22B40FDF7B3F8E9
:104D600002214DF22C40FDF7AEF8FE214DF22D4010
:104D7000FDF7A9F803214DF22E40FDF7A4F810210C
:104D80004DF22F40FDF79FF803214DF23040FDF723
:104D90009AF833214DF23140FDF795F803214DF299
:104DA0003240FDF790F86D214DF23340FDF78BF85E
:104DB00000214FF45540FDF786F833214DF20150A4
:104DC000FDF781F800214DF20250FDF77CF8342107
:104DD0004DF20350FDF777F800214DF20450FDF736
:104DE00072F83A214DF20550FDF76DF800214DF2B1
:104DF0000650FDF768F84A214DF20750FDF763F8B9
:104E000000214DF20850FDF75EF85C214DF209508B
:104E1000FDF759F800214DF20A50FDF754F88121B1
:104E20004DF20B50FDF74FF800214DF20C50FDF7FD
:104E30004AF8A6214DF20D50FDF745F800214DF23C
:104E40000E50FDF740F8E5214DF20F50FDF73BF80D
:104E500001214DF21050FDF736F813214DF211509B
:104E6000FDF731F801214DF21250FDF72CF85421D5
:104E70004DF21350FDF727F801214DF21450FDF7C4
:104E800022F882214DF21550FDF71DF801214DF257
:104E90001650FDF718F8CA214DF21750FDF713F818
:104EA00002214DF21850FDF70EF800214DF2195075
:104EB000FDF709F802214DF21A50FDF704F801211F
:104EC0004DF21B50FCF7FFFF02214DF21C50FCF786
:104ED000FAFF34214DF21D50FCF7F5FF02214DF28F
:104EE0001E50FCF7F0FF67214DF21F50FCF7EBFF5F
:104EF00002214DF22050FCF7E6FF84214DF22150B3
:104F0000FCF7E1FF02214DF22250FCF7DCFFA42167
:104F10004DF22350FCF7D7FF02214DF22450FCF74D
:104F2000D2FFB7214DF22550FCF7CDFF02214DF203
:104F30002650FCF7C8FFCF214DF22750FCF7C3FFE6
:104F400002214DF22850FCF7BEFFDE214DF2295020
:104F5000FCF7B9FF02214DF22A50FCF7B4FFF22111
:104F60004DF22B50FCF7AFFF02214DF22C50FCF715
:104F7000AAFFFE214DF22D50FCF7A5FF03214DF2B3
:104F80002E50FCF7A0FF10214DF22F50FCF79BFF95
:104F900003214DF23050FCF796FF33214DF2315092
:104FA000FCF791FF03214DF23250FCF78CFF6D218D
:104FB0004DF23350FCF787FF00214FF45640FCF7C9
:104FC00082FF33214DF20160FCF77DFF00214DF29D
:104FD0000260FCF778FF34214DF20360FCF773FFA9
:104FE00000214DF20460FCF76EFF3A214DF205609E
:104FF000FCF769FF00214DF20660FCF764FF4A21CF
:105000004DF20760FCF75FFF00214DF20860FCF7EE
:105010005AFF5C214DF20960FCF755FF00214DF26B
:105020000A60FCF750FF81214DF20B60FCF74BFF4B
:1050300000214DF20C60FCF746FFA6214DF20D60F9
:10504000FCF741FF00214DF20E60FCF73CFFE5212B
:105050004DF20F60FCF737FF01214DF21060FCF7B5
:1050600032FF13214DF21160FCF72DFF01214DF2AB
:105070001260FCF728FF54214DF21360FCF723FF68
:1050800001214DF21460FCF71EFF82214DF21560E4
:10509000FCF719FF01214DF21660FCF714FFCA213D
:1050A0004DF21760FCF70FFF02214DF21860FCF77C
:1050B0000AFF00214DF21960FCF705FF02214DF2B5
:1050C0001A60FCF700FF01214DF21B60FCF7FBFEAC
:1050D00002214DF21C60FCF7F6FE34214DF21D60FA
:1050E000FCF7F1FE02214DF21E60FCF7ECFE672199
:1050F0004DF21F60FCF7E7FE02214DF22060FCF745
:10510000E2FE84214DF22160FCF7DDFE02214DF22A
:105110002260FCF7D8FEA4214DF22360FCF7D3FEF9
:1051200002214DF22460FCF7CEFEB7214DF225603E
:10513000FCF7C9FE02214DF22660FCF7C4FECF2128
:105140004DF22760FCF7BFFE02214DF22860FCF70C
:10515000BAFEDE214DF22960FCF7B5FE02214DF2C8
:105160002A60FCF7B0FEF2214DF22B60FCF7ABFE9B
:1051700002214DF22C60FCF7A6FEFE214DF22D60BF
:10518000FCF7A1FE03214DF22E60FCF79CFE1021DE
:105190004DF22F60FCF797FE03214DF23060FCF7D3
:1051A00092FE33214DF23160FCF78DFE03214DF26A
:1051B0003260FCF788FE6D214DF23360FCF783FE10
:1051C00055214FF47040FCF77EFEAA214FF20100FA
:1051D000FCF779FE52214FF20200FCF774FE082121
:1051E0004FF20300FCF76FFE00214FF20400FCF7C2
:1051F0006AFECC214FF43140FCF765FE00214BF2F2
:105200000110FCF760FE05214FF43640FCF75BFE11
:1052100070214FF43740FCF756FE70214BF20170BD
:10522000FCF751FE01214FF43840FCF74CFE0321FE
:105230004BF60100FCF747FE03214BF60200FCF79A
:1052400042FE03214BF60300FCF73DFE02214FF422
:105250003C40FCF738FE00214BF60140FCF733FEE2
:1052600000214BF60240FCF72EFED0214FF44940BE
:10527000FCF729FE02214CF60110FCF724FE502118
:105280004CF60210FCF71FFE50214CF60310FCF701
:105290001AFE50214CF60410FCF715FE00214FF4C5
:1052A0005450FCF710FE55214FF46850FCF70BFEEC
:1052B0004FF48850FCF7ECFD782005F026F84FF409
:1052C0002450FCF7E5FD01F05EB9FE48808849F204
:1052D000253188427ED147F6F001E520FCF7F3FD49
:1052E0004FF480710120FCF7EEFD4FF4E0610220E5
:1052F000FCF7E9FD41F230010320FCF7E4FD002159
:105300000420FCF7E0FD40F202210820FCF7DBFD61
:1053100000210920FCF7D7FD00210A20FCF7D3FD6E
:1053200000210C20FCF7CFFD00210D20FCF7CBFD68
:1053300000210F20FCF7C7FD00211020FCF7C3FD62
:1053400007211120FCF7BFFD00211220FCF7BBFD57
:1053500000211320FCF7B7FD00210720FCF7B3FD67
:1053600041F290611020FCF7AEFD40F227211120A0
:10537000FCF7A9FD9D211220FCF7A5FD4FF4C851B3
:105380001320FCF7A0FD25212920FCF79CFD0D2111
:105390002B20FCF798FD07213020FCF794FD40F20C
:1053A00003313120FCF78FFD03213220FCF78BFD08
:1053B00040F206213520FCF786FD08213620FCF757
:1053C00082FD40F206413720FCF77DFD4FF441712C
:1053D000382000E057E0FCF776FD07213920FCF784
:1053E00072FD40F202613C20FCF76DFD08213D207A
:1053F000FCF769FD00215020FCF765FDEF215120ED
:10540000FCF761FD00215220FCF75DFD40F23F11E9
:105410005320FCF758FD4FF427416020FCF753FD63
:1054200001216120FCF74FFD00216A20FCF74BFDB4
:1054300000218020FCF747FD00218120FCF743FD7F
:1054400000218220FCF73FFD00218320FCF73BFD7B
:1054500000218420FCF737FD00218520FCF733FD77
:1054600010219020FCF72FFD4FF4C0619220FCF733
:105470002AFD40F233110720FCF725FD22210020F0
:10548000FCF721FD1FE78F48808849F228318842C8
:105490007ED141F28F01EC20FCF715FD41F2342161
:1054A000EF20FCF710FD4FF480710120FCF70BFD9D
:1054B0004FF4E0610220FCF706FD41F230010320C9
:1054C000FCF701FD00210420FCF7FDFC40F2022165
:1054D0000820FCF7F8FC00210920FCF7F4FC00216F
:1054E0000A20FCF7F0FC01210C20FCF7ECFC002169
:1054F0000D20FCF7E8FC00210F20FCF7E4FC002164
:105500001020FCF7E0FC07211120FCF7DCFC002157
:105510001220FCF7D8FC00211320FCF7D4FC012159
:105520000720FCF7D0FC322004F019FF41F2904133
:105530001020FCF7C8FC40F227211120FCF7C3FC27
:10554000322004F00CFF8A211220FCF7BCFC322030
:1055500004F005FF4FF4D0511320FCF7B4FC0621F2
:105560002920FCF7B0FC0D212B20FCF7ACFC3220ED
:1055700004F0F5FE00212020FCF7A5FC00212120ED
:10558000FCF7A1FC322004F0EAFE0021302000E00C
:1055900074E0FCF798FC40F204613120FCF793FCC6
:1055A00040F205313220FCF78EFC00213520FCF75B
:1055B0008AFC40F609413620FCF785FC4FF4017166
:1055C0003720FCF780FC40F201313820FCF77BFCEF
:1055D00040F207713920FCF776FC00213C20FCF7F3
:1055E00072FC40F60A213D20FCF76DFC322004F0ED
:1055F000B6FE00215020FCF766FCEF215120FCF79D
:1056000062FC00215220FCF75EFC40F23F11532067
:10561000FCF759FC4FF427416020FCF754FC0121B2
:105620006120FCF750FC00216A20FCF74CFC0021B3
:105630008020FCF748FC00218120FCF744FC00217D
:105640008220FCF740FC00218320FCF73CFC002179
:105650008420FCF738FC00218520FCF734FC102165
:105660009020FCF730FC4FF4C0619220FCF72BFC3B
:1056700040F233110720FCF726FC24E6114880880D
:1056800049F2203188427DD100210846FCF71BFCFD
:105690004FF480710120FCF716FC4FF4E06102200A
:1056A000FCF711FC41F230010320FCF70CFC002157
:1056B0000420FCF708FC40F202210820FCF703FC60
:1056C000002101E0701B00200920FCF7FCFB0021F9
:1056D0000A20FCF7F8FB01210C20FCF7F4FB002169
:1056E0000D20FCF7F0FB00210F20FCF7ECFB322033
:1056F00004F035FE40F201110720FCF7E4FB3220F4
:1057000004F02DFE4FF486511020FCF7DCFB07213E
:105710001120FCF7D8FB4FF488711220FCF7D3FB63
:105720004FF430611320FCF7CEFB00212920FCF759
:10573000CAFB44F210012B20FCF7C5FB00215020CE
:10574000FCF7C1FBEF215120FCF7BDFB00215220EB
:10575000FCF7B9FB40F23F115320FCF7B4FB4FF4C8
:105760001C516020FCF7AFFB01216120FCF7ABFB73
:1057700000216A20FCF7A7FB00218020FCF7A3FB97
:10578000002100E031E08120FCF79DFB0021822018
:10579000FCF799FB00218320FCF795FB0021842076
:1057A000FCF791FB00218520FCF78DFB1021902058
:1057B000FCF789FB00219220FCF785FB0121932057
:1057C000FCF781FB4FF488719520FCF77CFB0021EE
:1057D0009720FCF778FB00219820FCF774FB40F23F
:1057E00073110720FCF76FFB6DE5FE48808849F2D6
:1057F000313188427DD141F21401E720FCF763FB8F
:105800004FF480710120FCF75EFB4FF40071022021
:10581000FCF759FB41F238010320FCF754FB40F23E
:1058200002210820FCF74FFB00210920FCF74BFB6D
:1058300000210A20FCF747FB00210C20FCF743FB6A
:1058400000210D20FCF73FFB00210F20FCF73BFB64
:1058500000211020FCF737FB07211120FCF733FB58
:1058600000211220FCF72FFB00211320FCF72BFB5B
:10587000C82004F074FD41F290611020FCF723FB76
:1058800040F227211120FCF71EFB322004F067FDB7
:105890000C211220FCF717FB322004F060FD4FF4BE
:1058A00000611320FCF70FFB11212920FCF70BFBF3
:1058B0000B212B20FCF707FB322004F050FD0021C8
:1058C0002020FCF700FB40F23F112120FCF7FBFAFF
:1058D00000213020FCF7F7FA4FF483713120FCF7F8
:1058E000F2FA00213220FCF7EEFA4FF40171352074
:1058F00000E064E0FCF7E7FA41F20A613620FCF7C9
:10590000E2FA40F207713720FCF7DDFA4FF48371B9
:105910003820FCF7D8FA40F207713920FCF7D3FAA7
:1059200040F202413C20FCF7CEFA40F60F413D2008
:10593000FCF7C9FA00215020FCF7C5FAEF215120ED
:10594000FCF7C1FA00215220FCF7BDFA40F23F11EA
:105950005320FCF7B8FA4FF41C516020FCF7B3FA5F
:1059600001216120FCF7AFFA00216A20FCF7ABFAB5
:1059700000218020FCF7A7FA00218120FCF7A3FA80
:1059800000218220FCF79FFA00218320FCF79BFA7C
:1059900000218420FCF797FA00218520FCF793FA78
:1059A00010219020FCF78FFA4FF4C0619220FCF791
:1059B0008AFA40F233110720FCF785FA83E489481C
:1059C000808845F2084188427ED14FF480710120E1
:1059D000FCF779FA4FF4E0610220FCF774FA41F227
:1059E00030010320FCF76FFA00210420FCF76BFA6A
:1059F00040F207210820FCF766FA00210920FCF795
:105A000062FA00210A20FCF75EFA00210C20FCF764
:105A10005AFA00210D20FCF756FA00210F20FCF75E
:105A200052FA142004F09BFC41F2B0611020FCF704
:105A30004AFA01211120FCF746FA01211720FCF750
:105A400042FA4FF49C711220FCF73DFA4FF40061CA
:105A50001320FCF738FA09212920FCF734FA092130
:105A60002A20FCF730FA0021A420FCF72CFA0021B0
:105A70005020FCF728FAEF215120FCF724FA0021EE
:105A80005220FCF720FA40F23F115320FCF71BFA9A
:105A90004FF41C516020FCF716FA01216120FCF73D
:105AA00012FA00216A20FCF70EFA00218020FCF790
:105AB0000AFA00218120FCF706FA00218220FCF777
:105AC00002FA0021832000E023E0FCF7FCF900212A
:105AD0008420FCF7F8F900218520FCF7F4F9132164
